{
  "_format": "hh-sol-artifact-1",
  "contractName": "SimpleERC20",
  "sourceName": "contracts/SimpleERC20.sol",
  "abi": [
    {
      "inputs": [],
      "stateMutability": "nonpayable",
      "type": "constructor"
    },
    {
      "inputs": [
        {
          "internalType": "address",
          "name": "spender",
          "type": "address"
        },
        {
          "internalType": "uint256",
          "name": "allowance",
          "type": "uint256"
        },
        {
          "internalType": "uint256",
          "name": "needed",
          "type": "uint256"
        }
      ],
      "name": "ERC20InsufficientAllowance",
      "type": "error"
    },
    {
      "inputs": [
        {
          "internalType": "address",
          "name": "sender",
          "type": "address"
        },
        {
          "internalType": "uint256",
          "name": "balance",
          "type": "uint256"
        },
        {
          "internalType": "uint256",
          "name": "needed",
          "type": "uint256"
        }
      ],
      "name": "ERC20InsufficientBalance",
      "type": "error"
    },
    {
      "inputs": [
        {
          "internalType": "address",
          "name": "approver",
          "type": "address"
        }
      ],
      "name": "ERC20InvalidApprover",
      "type": "error"
    },
    {
      "inputs": [
        {
          "internalType": "address",
          "name": "receiver",
          "type": "address"
        }
      ],
      "name": "ERC20InvalidReceiver",
      "type": "error"
    },
    {
      "inputs": [
        {
          "internalType": "address",
          "name": "sender",
          "type": "address"
        }
      ],
      "name": "ERC20InvalidSender",
      "type": "error"
    },
    {
      "inputs": [
        {
          "internalType": "address",
          "name": "spender",
          "type": "address"
        }
      ],
      "name": "ERC20InvalidSpender",
      "type": "error"
    },
    {
      "inputs": [
        {
          "internalType": "address",
          "name": "owner",
          "type": "address"
        }
      ],
      "name": "OwnableInvalidOwner",
      "type": "error"
    },
    {
      "inputs": [
        {
          "internalType": "address",
          "name": "account",
          "type": "address"
        }
      ],
      "name": "OwnableUnauthorizedAccount",
      "type": "error"
    },
    {
      "anonymous": false,
      "inputs": [
        {
          "indexed": true,
          "internalType": "address",
          "name": "owner",
          "type": "address"
        },
        {
          "indexed": true,
          "internalType": "address",
          "name": "spender",
          "type": "address"
        },
        {
          "indexed": false,
          "internalType": "uint256",
          "name": "value",
          "type": "uint256"
        }
      ],
      "name": "Approval",
      "type": "event"
    },
    {
      "anonymous": false,
      "inputs": [
        {
          "indexed": true,
          "internalType": "address",
          "name": "previousOwner",
          "type": "address"
        },
        {
          "indexed": true,
          "internalType": "address",
          "name": "newOwner",
          "type": "address"
        }
      ],
      "name": "OwnershipTransferred",
      "type": "event"
    },
    {
      "anonymous": false,
      "inputs": [
        {
          "indexed": true,
          "internalType": "address",
          "name": "from",
          "type": "address"
        },
        {
          "indexed": true,
          "internalType": "address",
          "name": "to",
          "type": "address"
        },
        {
          "indexed": false,
          "internalType": "uint256",
          "name": "value",
          "type": "uint256"
        }
      ],
      "name": "Transfer",
      "type": "event"
    },
    {
      "inputs": [
        {
          "internalType": "address",
          "name": "owner",
          "type": "address"
        },
        {
          "internalType": "address",
          "name": "spender",
          "type": "address"
        }
      ],
      "name": "allowance",
      "outputs": [
        {
          "internalType": "uint256",
          "name": "",
          "type": "uint256"
        }
      ],
      "stateMutability": "view",
      "type": "function"
    },
    {
      "inputs": [
        {
          "internalType": "address",
          "name": "spender",
          "type": "address"
        },
        {
          "internalType": "uint256",
          "name": "value",
          "type": "uint256"
        }
      ],
      "name": "approve",
      "outputs": [
        {
          "internalType": "bool",
          "name": "",
          "type": "bool"
        }
      ],
      "stateMutability": "nonpayable",
      "type": "function"
    },
    {
      "inputs": [
        {
          "internalType": "address",
          "name": "account",
          "type": "address"
        }
      ],
      "name": "balanceOf",
      "outputs": [
        {
          "internalType": "uint256",
          "name": "",
          "type": "uint256"
        }
      ],
      "stateMutability": "view",
      "type": "function"
    },
    {
      "inputs": [],
      "name": "decimals",
      "outputs": [
        {
          "internalType": "uint8",
          "name": "",
          "type": "uint8"
        }
      ],
      "stateMutability": "view",
      "type": "function"
    },
    {
      "inputs": [
        {
          "internalType": "address",
          "name": "to",
          "type": "address"
        },
        {
          "internalType": "uint256",
          "name": "amount",
          "type": "uint256"
        }
      ],
      "name": "mint",
      "outputs": [],
      "stateMutability": "nonpayable",
      "type": "function"
    },
    {
      "inputs": [
        {
          "internalType": "address",
          "name": "to",
          "type": "address"
        },
        {
          "internalType": "uint256",
          "name": "amount",
          "type": "uint256"
        }
      ],
      "name": "mintOwner",
      "outputs": [],
      "stateMutability": "nonpayable",
      "type": "function"
    },
    {
      "inputs": [],
      "name": "name",
      "outputs": [
        {
          "internalType": "string",
          "name": "",
          "type": "string"
        }
      ],
      "stateMutability": "view",
      "type": "function"
    },
    {
      "inputs": [],
      "name": "owner",
      "outputs": [
        {
          "internalType": "address",
          "name": "",
          "type": "address"
        }
      ],
      "stateMutability": "view",
      "type": "function"
    },
    {
      "inputs": [],
      "name": "renounceOwnership",
      "outputs": [],
      "stateMutability": "nonpayable",
      "type": "function"
    },
    {
      "inputs": [],
      "name": "symbol",
      "outputs": [
        {
          "internalType": "string",
          "name": "",
          "type": "string"
        }
      ],
      "stateMutability": "view",
      "type": "function"
    },
    {
      "inputs": [],
      "name": "totalSupply",
      "outputs": [
        {
          "internalType": "uint256",
          "name": "",
          "type": "uint256"
        }
      ],
      "stateMutability": "view",
      "type": "function"
    },
    {
      "inputs": [
        {
          "internalType": "address",
          "name": "to",
          "type": "address"
        },
        {
          "internalType": "uint256",
          "name": "value",
          "type": "uint256"
        }
      ],
      "name": "transfer",
      "outputs": [
        {
          "internalType": "bool",
          "name": "",
          "type": "bool"
        }
      ],
      "stateMutability": "nonpayable",
      "type": "function"
    },
    {
      "inputs": [
        {
          "internalType": "address",
          "name": "from",
          "type": "address"
        },
        {
          "internalType": "address",
          "name": "to",
          "type": "address"
        },
        {
          "internalType": "uint256",
          "name": "value",
          "type": "uint256"
        }
      ],
      "name": "transferFrom",
      "outputs": [
        {
          "internalType": "bool",
          "name": "",
          "type": "bool"
        }
      ],
      "stateMutability": "nonpayable",
      "type": "function"
    },
    {
      "inputs": [
        {
          "internalType": "address",
          "name": "newOwner",
          "type": "address"
        }
      ],
      "name": "transferOwnership",
      "outputs": [],
      "stateMutability": "nonpayable",
      "type": "function"
    }
  ],
  "bytecode": "0x60806040523480156200001157600080fd5b50336040518060400160405280600881526020017f4d6f6e546f6b656e0000000000000000000000000000000000000000000000008152506040518060400160405280600381526020017f4d544b00000000000000000000000000000000000000000000000000000000008152508160039081620000909190620007ce565b508060049081620000a29190620007ce565b505050600073ffffffffffffffffffffffffffffffffffffffff168173ffffffffffffffffffffffffffffffffffffffff16036200011a5760006040517f1e4fbdf7000000000000000000000000000000000000000000000000000000008152600401620001119190620008fa565b60405180910390fd5b6200012b81620001c560201b60201c565b5062000148671ddbcfa88798681c60c01b6200028b60201b60201c565b62000164672e87622e6db4acc660c01b6200028b60201b60201c565b6200018067e66e664e4ac55f1560c01b6200028b60201b60201c565b620001bf33620001956200028e60201b60201c565b600a620001a3919062000aa7565b620f4240620001b3919062000af8565b6200029760201b60201c565b62000be9565b6000600560009054906101000a900473ffffffffffffffffffffffffffffffffffffffff16905081600560006101000a81548173ffffffffffffffffffffffffffffffffffffffff021916908373ffffffffffffffffffffffffffffffffffffffff1602179055508173ffffffffffffffffffffffffffffffffffffffff168173ffffffffffffffffffffffffffffffffffffffff167f8be0079c531659141344cd1fd0a4f28419497f9722a3daafe3b4186f6b6457e060405160405180910390a35050565b50565b60006012905090565b600073ffffffffffffffffffffffffffffffffffffffff168273ffffffffffffffffffffffffffffffffffffffff16036200030c5760006040517fec442f05000000000000000000000000000000000000000000000000000000008152600401620003039190620008fa565b60405180910390fd5b62000320600083836200032460201b60201c565b5050565b600073ffffffffffffffffffffffffffffffffffffffff168373ffffffffffffffffffffffffffffffffffffffff16036200037a5780600260008282546200036d919062000b43565b9250508190555062000450565b60008060008573ffffffffffffffffffffffffffffffffffffffff1673ffffffffffffffffffffffffffffffffffffffff1681526020019081526020016000205490508181101562000409578381836040517fe450d38c000000000000000000000000000000000000000000000000000000008152600401620004009392919062000b8f565b60405180910390fd5b8181036000808673ffffffffffffffffffffffffffffffffffffffff1673ffffffffffffffffffffffffffffffffffffffff16815260200190815260200160002081905550505b600073ffffffffffffffffffffffffffffffffffffffff168273ffffffffffffffffffffffffffffffffffffffff16036200049b5780600260008282540392505081905550620004e8565b806000808473ffffffffffffffffffffffffffffffffffffffff1673ffffffffffffffffffffffffffffffffffffffff168152602001908152602001600020600082825401925050819055505b8173ffffffffffffffffffffffffffffffffffffffff168373ffffffffffffffffffffffffffffffffffffffff167fddf252ad1be2c89b69c2b068fc378daa952ba7f163c4a11628f55a4df523b3ef8360405162000547919062000bcc565b60405180910390a3505050565b600081519050919050565b7f4e487b7100000000000000000000000000000000000000000000000000000000600052604160045260246000fd5b7f4e487b7100000000000000000000000000000000000000000000000000000000600052602260045260246000fd5b60006002820490506001821680620005d657607f821691505b602082108103620005ec57620005eb6200058e565b5b50919050565b60008190508160005260206000209050919050565b60006020601f8301049050919050565b600082821b905092915050565b600060088302620006567fffffffffffffffffffffffffffffffffffffffffffffffffffffffffffffffff8262000617565b62000662868362000617565b95508019841693508086168417925050509392505050565b6000819050919050565b6000819050919050565b6000620006af620006a9620006a3846200067a565b62000684565b6200067a565b9050919050565b6000819050919050565b620006cb836200068e565b620006e3620006da82620006b6565b84845462000624565b825550505050565b600090565b620006fa620006eb565b62000707818484620006c0565b505050565b5b818110156200072f5762000723600082620006f0565b6001810190506200070d565b5050565b601f8211156200077e576200074881620005f2565b620007538462000607565b8101602085101562000763578190505b6200077b620007728562000607565b8301826200070c565b50505b505050565b600082821c905092915050565b6000620007a36000198460080262000783565b1980831691505092915050565b6000620007be838362000790565b9150826002028217905092915050565b620007d98262000554565b67ffffffffffffffff811115620007f557620007f46200055f565b5b620008018254620005bd565b6200080e82828562000733565b600060209050601f83116001811462000846576000841562000831578287015190505b6200083d8582620007b0565b865550620008ad565b601f1984166200085686620005f2565b60005b82811015620008805784890151825560018201915060208501945060208101905062000859565b86831015620008a057848901516200089c601f89168262000790565b8355505b6001600288020188555050505b505050505050565b600073ffffffffffffffffffffffffffffffffffffffff82169050919050565b6000620008e282620008b5565b9050919050565b620008f481620008d5565b82525050565b6000602082019050620009116000830184620008e9565b92915050565b7f4e487b7100000000000000000000000000000000000000000000000000000000600052601160045260246000fd5b60008160011c9050919050565b6000808291508390505b6001851115620009a5578086048111156200097d576200097c62000917565b5b60018516156200098d5780820291505b80810290506200099d8562000946565b94506200095d565b94509492505050565b600082620009c0576001905062000a93565b81620009d0576000905062000a93565b8160018114620009e95760028114620009f45762000a2a565b600191505062000a93565b60ff84111562000a095762000a0862000917565b5b8360020a91508482111562000a235762000a2262000917565b5b5062000a93565b5060208310610133831016604e8410600b841016171562000a645782820a90508381111562000a5e5762000a5d62000917565b5b62000a93565b62000a73848484600162000953565b9250905081840481111562000a8d5762000a8c62000917565b5b81810290505b9392505050565b600060ff82169050919050565b600062000ab4826200067a565b915062000ac18362000a9a565b925062000af07fffffffffffffffffffffffffffffffffffffffffffffffffffffffffffffffff8484620009ae565b905092915050565b600062000b05826200067a565b915062000b12836200067a565b925082820262000b22816200067a565b9150828204841483151762000b3c5762000b3b62000917565b5b5092915050565b600062000b50826200067a565b915062000b5d836200067a565b925082820190508082111562000b785762000b7762000917565b5b92915050565b62000b89816200067a565b82525050565b600060608201905062000ba66000830186620008e9565b62000bb5602083018562000b7e565b62000bc4604083018462000b7e565b949350505050565b600060208201905062000be3600083018462000b7e565b92915050565b6112828062000bf96000396000f3fe608060405234801561001057600080fd5b50600436106100ea5760003560e01c806370a082311161008c57806395d89b411161006657806395d89b4114610239578063a9059cbb14610257578063dd62ed3e14610287578063f2fde38b146102b7576100ea565b806370a08231146101e1578063715018a6146102115780638da5cb5b1461021b576100ea565b806323b872dd116100c857806323b872dd1461015b578063313ce5671461018b578063408cbf94146101a957806340c10f19146101c5576100ea565b806306fdde03146100ef578063095ea7b31461010d57806318160ddd1461013d575b600080fd5b6100f76102d3565b6040516101049190610ed6565b60405180910390f35b61012760048036038101906101229190610f91565b610365565b6040516101349190610fec565b60405180910390f35b610145610388565b6040516101529190611016565b60405180910390f35b61017560048036038101906101709190611031565b610392565b6040516101829190610fec565b60405180910390f35b6101936103c1565b6040516101a091906110a0565b60405180910390f35b6101c360048036038101906101be9190610f91565b6103ca565b005b6101df60048036038101906101da9190610f91565b610444565b005b6101fb60048036038101906101f691906110bb565b61048e565b6040516102089190611016565b60405180910390f35b6102196104d6565b005b6102236104ea565b60405161023091906110f7565b60405180910390f35b610241610514565b60405161024e9190610ed6565b60405180910390f35b610271600480360381019061026c9190610f91565b6105a6565b60405161027e9190610fec565b60405180910390f35b6102a1600480360381019061029c9190611112565b6105c9565b6040516102ae9190611016565b60405180910390f35b6102d160048036038101906102cc91906110bb565b610650565b005b6060600380546102e290611181565b80601f016020809104026020016040519081016040528092919081815260200182805461030e90611181565b801561035b5780601f106103305761010080835404028352916020019161035b565b820191906000526020600020905b81548152906001019060200180831161033e57829003601f168201915b5050505050905090565b6000806103706106d6565b905061037d8185856106de565b600191505092915050565b6000600254905090565b60008061039d6106d6565b90506103aa8582856106f0565b6103b5858585610784565b60019150509392505050565b60006012905090565b6103de6750fde578362571e660c01b610878565b6103e661087b565b6103fa67df7da69588319c3560c01b610878565b61040e67c1f3b2c598ff81c760c01b610878565b6104226701dbc33122697b9860c01b610878565b610436674accf6e40916ab2960c01b610878565b6104408282610902565b5050565b61045867d9fa980ad90bae2d60c01b610878565b61046c67f69dbc33da28da6760c01b610878565b610480677e98dbf30723893860c01b610878565b61048a8282610902565b5050565b60008060008373ffffffffffffffffffffffffffffffffffffffff1673ffffffffffffffffffffffffffffffffffffffff168152602001908152602001600020549050919050565b6104de61087b565b6104e86000610984565b565b6000600560009054906101000a900473ffffffffffffffffffffffffffffffffffffffff16905090565b60606004805461052390611181565b80601f016020809104026020016040519081016040528092919081815260200182805461054f90611181565b801561059c5780601f106105715761010080835404028352916020019161059c565b820191906000526020600020905b81548152906001019060200180831161057f57829003601f168201915b5050505050905090565b6000806105b16106d6565b90506105be818585610784565b600191505092915050565b6000600160008473ffffffffffffffffffffffffffffffffffffffff1673ffffffffffffffffffffffffffffffffffffffff16815260200190815260200160002060008373ffffffffffffffffffffffffffffffffffffffff1673ffffffffffffffffffffffffffffffffffffffff16815260200190815260200160002054905092915050565b61065861087b565b600073ffffffffffffffffffffffffffffffffffffffff168173ffffffffffffffffffffffffffffffffffffffff16036106ca5760006040517f1e4fbdf70000000000000000000000000000000000000000000000000000000081526004016106c191906110f7565b60405180910390fd5b6106d381610984565b50565b600033905090565b6106eb8383836001610a4a565b505050565b60006106fc84846105c9565b90507fffffffffffffffffffffffffffffffffffffffffffffffffffffffffffffffff811461077e578181101561076e578281836040517ffb8f41b2000000000000000000000000000000000000000000000000000000008152600401610765939291906111b2565b60405180910390fd5b61077d84848484036000610a4a565b5b50505050565b600073ffffffffffffffffffffffffffffffffffffffff168373ffffffffffffffffffffffffffffffffffffffff16036107f65760006040517f96c6fd1e0000000000000000000000000000000000000000000000000000000081526004016107ed91906110f7565b60405180910390fd5b600073ffffffffffffffffffffffffffffffffffffffff168273ffffffffffffffffffffffffffffffffffffffff16036108685760006040517fec442f0500000000000000000000000000000000000000000000000000000000815260040161085f91906110f7565b60405180910390fd5b610873838383610c21565b505050565b50565b6108836106d6565b73ffffffffffffffffffffffffffffffffffffffff166108a16104ea565b73ffffffffffffffffffffffffffffffffffffffff1614610900576108c46106d6565b6040517f118cdaa70000000000000000000000000000000000000000000000000000000081526004016108f791906110f7565b60405180910390fd5b565b600073ffffffffffffffffffffffffffffffffffffffff168273ffffffffffffffffffffffffffffffffffffffff16036109745760006040517fec442f0500000000000000000000000000000000000000000000000000000000815260040161096b91906110f7565b60405180910390fd5b61098060008383610c21565b5050565b6000600560009054906101000a900473ffffffffffffffffffffffffffffffffffffffff16905081600560006101000a81548173ffffffffffffffffffffffffffffffffffffffff021916908373ffffffffffffffffffffffffffffffffffffffff1602179055508173ffffffffffffffffffffffffffffffffffffffff168173ffffffffffffffffffffffffffffffffffffffff167f8be0079c531659141344cd1fd0a4f28419497f9722a3daafe3b4186f6b6457e060405160405180910390a35050565b600073ffffffffffffffffffffffffffffffffffffffff168473ffffffffffffffffffffffffffffffffffffffff1603610abc5760006040517fe602df05000000000000000000000000000000000000000000000000000000008152600401610ab391906110f7565b60405180910390fd5b600073ffffffffffffffffffffffffffffffffffffffff168373ffffffffffffffffffffffffffffffffffffffff1603610b2e5760006040517f94280d62000000000000000000000000000000000000000000000000000000008152600401610b2591906110f7565b60405180910390fd5b81600160008673ffffffffffffffffffffffffffffffffffffffff1673ffffffffffffffffffffffffffffffffffffffff16815260200190815260200160002060008573ffffffffffffffffffffffffffffffffffffffff1673ffffffffffffffffffffffffffffffffffffffff168152602001908152602001600020819055508015610c1b578273ffffffffffffffffffffffffffffffffffffffff168473ffffffffffffffffffffffffffffffffffffffff167f8c5be1e5ebec7d5bd14f71427d1e84f3dd0314c0f7b2291e5b200ac8c7c3b92584604051610c129190611016565b60405180910390a35b50505050565b600073ffffffffffffffffffffffffffffffffffffffff168373ffffffffffffffffffffffffffffffffffffffff1603610c73578060026000828254610c679190611218565b92505081905550610d46565b60008060008573ffffffffffffffffffffffffffffffffffffffff1673ffffffffffffffffffffffffffffffffffffffff16815260200190815260200160002054905081811015610cff578381836040517fe450d38c000000000000000000000000000000000000000000000000000000008152600401610cf6939291906111b2565b60405180910390fd5b8181036000808673ffffffffffffffffffffffffffffffffffffffff1673ffffffffffffffffffffffffffffffffffffffff16815260200190815260200160002081905550505b600073ffffffffffffffffffffffffffffffffffffffff168273ffffffffffffffffffffffffffffffffffffffff1603610d8f5780600260008282540392505081905550610ddc565b806000808473ffffffffffffffffffffffffffffffffffffffff1673ffffffffffffffffffffffffffffffffffffffff168152602001908152602001600020600082825401925050819055505b8173ffffffffffffffffffffffffffffffffffffffff168373ffffffffffffffffffffffffffffffffffffffff167fddf252ad1be2c89b69c2b068fc378daa952ba7f163c4a11628f55a4df523b3ef83604051610e399190611016565b60405180910390a3505050565b600081519050919050565b600082825260208201905092915050565b60005b83811015610e80578082015181840152602081019050610e65565b60008484015250505050565b6000601f19601f8301169050919050565b6000610ea882610e46565b610eb28185610e51565b9350610ec2818560208601610e62565b610ecb81610e8c565b840191505092915050565b60006020820190508181036000830152610ef08184610e9d565b905092915050565b600080fd5b600073ffffffffffffffffffffffffffffffffffffffff82169050919050565b6000610f2882610efd565b9050919050565b610f3881610f1d565b8114610f4357600080fd5b50565b600081359050610f5581610f2f565b92915050565b6000819050919050565b610f6e81610f5b565b8114610f7957600080fd5b50565b600081359050610f8b81610f65565b92915050565b60008060408385031215610fa857610fa7610ef8565b5b6000610fb685828601610f46565b9250506020610fc785828601610f7c565b9150509250929050565b60008115159050919050565b610fe681610fd1565b82525050565b60006020820190506110016000830184610fdd565b92915050565b61101081610f5b565b82525050565b600060208201905061102b6000830184611007565b92915050565b60008060006060848603121561104a57611049610ef8565b5b600061105886828701610f46565b935050602061106986828701610f46565b925050604061107a86828701610f7c565b9150509250925092565b600060ff82169050919050565b61109a81611084565b82525050565b60006020820190506110b56000830184611091565b92915050565b6000602082840312156110d1576110d0610ef8565b5b60006110df84828501610f46565b91505092915050565b6110f181610f1d565b82525050565b600060208201905061110c60008301846110e8565b92915050565b6000806040838503121561112957611128610ef8565b5b600061113785828601610f46565b925050602061114885828601610f46565b9150509250929050565b7f4e487b7100000000000000000000000000000000000000000000000000000000600052602260045260246000fd5b6000600282049050600182168061119957607f821691505b6020821081036111ac576111ab611152565b5b50919050565b60006060820190506111c760008301866110e8565b6111d46020830185611007565b6111e16040830184611007565b949350505050565b7f4e487b7100000000000000000000000000000000000000000000000000000000600052601160045260246000fd5b600061122382610f5b565b915061122e83610f5b565b9250828201905080821115611246576112456111e9565b5b9291505056fea264697066735822122019c6a3fce6e7f3ac5f58a301699beadad6aa9969eebd5ac5b7efc4f82b167b9664736f6c63430008140033",
  "linkReferences": {},
  "deployedLinkReferences": {}
}