{
  "_format": "hh-sol-artifact-1",
  "contractName": "MyCryptoKitties",
  "sourceName": "contracts/MyCryptoKitties.sol",
  "abi": [
    {
      "inputs": [],
      "stateMutability": "nonpayable",
      "type": "constructor"
    },
    {
      "inputs": [
        {
          "internalType": "uint256",
          "name": "numerator",
          "type": "uint256"
        },
        {
          "internalType": "uint256",
          "name": "denominator",
          "type": "uint256"
        }
      ],
      "name": "ERC2981InvalidDefaultRoyalty",
      "type": "error"
    },
    {
      "inputs": [
        {
          "internalType": "address",
          "name": "receiver",
          "type": "address"
        }
      ],
      "name": "ERC2981InvalidDefaultRoyaltyReceiver",
      "type": "error"
    },
    {
      "inputs": [
        {
          "internalType": "uint256",
          "name": "tokenId",
          "type": "uint256"
        },
        {
          "internalType": "uint256",
          "name": "numerator",
          "type": "uint256"
        },
        {
          "internalType": "uint256",
          "name": "denominator",
          "type": "uint256"
        }
      ],
      "name": "ERC2981InvalidTokenRoyalty",
      "type": "error"
    },
    {
      "inputs": [
        {
          "internalType": "uint256",
          "name": "tokenId",
          "type": "uint256"
        },
        {
          "internalType": "address",
          "name": "receiver",
          "type": "address"
        }
      ],
      "name": "ERC2981InvalidTokenRoyaltyReceiver",
      "type": "error"
    },
    {
      "inputs": [
        {
          "internalType": "address",
          "name": "sender",
          "type": "address"
        },
        {
          "internalType": "uint256",
          "name": "tokenId",
          "type": "uint256"
        },
        {
          "internalType": "address",
          "name": "owner",
          "type": "address"
        }
      ],
      "name": "ERC721IncorrectOwner",
      "type": "error"
    },
    {
      "inputs": [
        {
          "internalType": "address",
          "name": "operator",
          "type": "address"
        },
        {
          "internalType": "uint256",
          "name": "tokenId",
          "type": "uint256"
        }
      ],
      "name": "ERC721InsufficientApproval",
      "type": "error"
    },
    {
      "inputs": [
        {
          "internalType": "address",
          "name": "approver",
          "type": "address"
        }
      ],
      "name": "ERC721InvalidApprover",
      "type": "error"
    },
    {
      "inputs": [
        {
          "internalType": "address",
          "name": "operator",
          "type": "address"
        }
      ],
      "name": "ERC721InvalidOperator",
      "type": "error"
    },
    {
      "inputs": [
        {
          "internalType": "address",
          "name": "owner",
          "type": "address"
        }
      ],
      "name": "ERC721InvalidOwner",
      "type": "error"
    },
    {
      "inputs": [
        {
          "internalType": "address",
          "name": "receiver",
          "type": "address"
        }
      ],
      "name": "ERC721InvalidReceiver",
      "type": "error"
    },
    {
      "inputs": [
        {
          "internalType": "address",
          "name": "sender",
          "type": "address"
        }
      ],
      "name": "ERC721InvalidSender",
      "type": "error"
    },
    {
      "inputs": [
        {
          "internalType": "uint256",
          "name": "tokenId",
          "type": "uint256"
        }
      ],
      "name": "ERC721NonexistentToken",
      "type": "error"
    },
    {
      "inputs": [
        {
          "internalType": "address",
          "name": "owner",
          "type": "address"
        }
      ],
      "name": "OwnableInvalidOwner",
      "type": "error"
    },
    {
      "inputs": [
        {
          "internalType": "address",
          "name": "account",
          "type": "address"
        }
      ],
      "name": "OwnableUnauthorizedAccount",
      "type": "error"
    },
    {
      "anonymous": false,
      "inputs": [
        {
          "indexed": true,
          "internalType": "address",
          "name": "owner",
          "type": "address"
        },
        {
          "indexed": true,
          "internalType": "address",
          "name": "approved",
          "type": "address"
        },
        {
          "indexed": true,
          "internalType": "uint256",
          "name": "tokenId",
          "type": "uint256"
        }
      ],
      "name": "Approval",
      "type": "event"
    },
    {
      "anonymous": false,
      "inputs": [
        {
          "indexed": true,
          "internalType": "address",
          "name": "owner",
          "type": "address"
        },
        {
          "indexed": true,
          "internalType": "address",
          "name": "operator",
          "type": "address"
        },
        {
          "indexed": false,
          "internalType": "bool",
          "name": "approved",
          "type": "bool"
        }
      ],
      "name": "ApprovalForAll",
      "type": "event"
    },
    {
      "anonymous": false,
      "inputs": [
        {
          "indexed": true,
          "internalType": "address",
          "name": "previousOwner",
          "type": "address"
        },
        {
          "indexed": true,
          "internalType": "address",
          "name": "newOwner",
          "type": "address"
        }
      ],
      "name": "OwnershipTransferred",
      "type": "event"
    },
    {
      "anonymous": false,
      "inputs": [
        {
          "indexed": true,
          "internalType": "address",
          "name": "from",
          "type": "address"
        },
        {
          "indexed": true,
          "internalType": "address",
          "name": "to",
          "type": "address"
        },
        {
          "indexed": true,
          "internalType": "uint256",
          "name": "tokenId",
          "type": "uint256"
        }
      ],
      "name": "Transfer",
      "type": "event"
    },
    {
      "inputs": [
        {
          "internalType": "address",
          "name": "to",
          "type": "address"
        },
        {
          "internalType": "uint256",
          "name": "tokenId",
          "type": "uint256"
        }
      ],
      "name": "approve",
      "outputs": [],
      "stateMutability": "nonpayable",
      "type": "function"
    },
    {
      "inputs": [
        {
          "internalType": "address",
          "name": "owner",
          "type": "address"
        }
      ],
      "name": "balanceOf",
      "outputs": [
        {
          "internalType": "uint256",
          "name": "",
          "type": "uint256"
        }
      ],
      "stateMutability": "view",
      "type": "function"
    },
    {
      "inputs": [
        {
          "internalType": "uint256",
          "name": "tokenId",
          "type": "uint256"
        }
      ],
      "name": "getApproved",
      "outputs": [
        {
          "internalType": "address",
          "name": "",
          "type": "address"
        }
      ],
      "stateMutability": "view",
      "type": "function"
    },
    {
      "inputs": [
        {
          "internalType": "address",
          "name": "owner",
          "type": "address"
        },
        {
          "internalType": "address",
          "name": "operator",
          "type": "address"
        }
      ],
      "name": "isApprovedForAll",
      "outputs": [
        {
          "internalType": "bool",
          "name": "",
          "type": "bool"
        }
      ],
      "stateMutability": "view",
      "type": "function"
    },
    {
      "inputs": [],
      "name": "name",
      "outputs": [
        {
          "internalType": "string",
          "name": "",
          "type": "string"
        }
      ],
      "stateMutability": "view",
      "type": "function"
    },
    {
      "inputs": [],
      "name": "owner",
      "outputs": [
        {
          "internalType": "address",
          "name": "",
          "type": "address"
        }
      ],
      "stateMutability": "view",
      "type": "function"
    },
    {
      "inputs": [
        {
          "internalType": "uint256",
          "name": "tokenId",
          "type": "uint256"
        }
      ],
      "name": "ownerOf",
      "outputs": [
        {
          "internalType": "address",
          "name": "",
          "type": "address"
        }
      ],
      "stateMutability": "view",
      "type": "function"
    },
    {
      "inputs": [],
      "name": "renounceOwnership",
      "outputs": [],
      "stateMutability": "nonpayable",
      "type": "function"
    },
    {
      "inputs": [
        {
          "internalType": "uint256",
          "name": "tokenId",
          "type": "uint256"
        },
        {
          "internalType": "uint256",
          "name": "salePrice",
          "type": "uint256"
        }
      ],
      "name": "royaltyInfo",
      "outputs": [
        {
          "internalType": "address",
          "name": "",
          "type": "address"
        },
        {
          "internalType": "uint256",
          "name": "",
          "type": "uint256"
        }
      ],
      "stateMutability": "view",
      "type": "function"
    },
    {
      "inputs": [
        {
          "internalType": "address",
          "name": "from",
          "type": "address"
        },
        {
          "internalType": "address",
          "name": "to",
          "type": "address"
        },
        {
          "internalType": "uint256",
          "name": "tokenId",
          "type": "uint256"
        }
      ],
      "name": "safeTransferFrom",
      "outputs": [],
      "stateMutability": "nonpayable",
      "type": "function"
    },
    {
      "inputs": [
        {
          "internalType": "address",
          "name": "from",
          "type": "address"
        },
        {
          "internalType": "address",
          "name": "to",
          "type": "address"
        },
        {
          "internalType": "uint256",
          "name": "tokenId",
          "type": "uint256"
        },
        {
          "internalType": "bytes",
          "name": "data",
          "type": "bytes"
        }
      ],
      "name": "safeTransferFrom",
      "outputs": [],
      "stateMutability": "nonpayable",
      "type": "function"
    },
    {
      "inputs": [
        {
          "internalType": "address",
          "name": "operator",
          "type": "address"
        },
        {
          "internalType": "bool",
          "name": "approved",
          "type": "bool"
        }
      ],
      "name": "setApprovalForAll",
      "outputs": [],
      "stateMutability": "nonpayable",
      "type": "function"
    },
    {
      "inputs": [
        {
          "internalType": "bytes4",
          "name": "interfaceId",
          "type": "bytes4"
        }
      ],
      "name": "supportsInterface",
      "outputs": [
        {
          "internalType": "bool",
          "name": "",
          "type": "bool"
        }
      ],
      "stateMutability": "view",
      "type": "function"
    },
    {
      "inputs": [],
      "name": "symbol",
      "outputs": [
        {
          "internalType": "string",
          "name": "",
          "type": "string"
        }
      ],
      "stateMutability": "view",
      "type": "function"
    },
    {
      "inputs": [
        {
          "internalType": "uint256",
          "name": "tokenId",
          "type": "uint256"
        }
      ],
      "name": "tokenURI",
      "outputs": [
        {
          "internalType": "string",
          "name": "",
          "type": "string"
        }
      ],
      "stateMutability": "view",
      "type": "function"
    },
    {
      "inputs": [
        {
          "internalType": "address",
          "name": "from",
          "type": "address"
        },
        {
          "internalType": "address",
          "name": "to",
          "type": "address"
        },
        {
          "internalType": "uint256",
          "name": "tokenId",
          "type": "uint256"
        }
      ],
      "name": "transferFrom",
      "outputs": [],
      "stateMutability": "nonpayable",
      "type": "function"
    },
    {
      "inputs": [
        {
          "internalType": "address",
          "name": "newOwner",
          "type": "address"
        }
      ],
      "name": "transferOwnership",
      "outputs": [],
      "stateMutability": "nonpayable",
      "type": "function"
    }
  ],
  "bytecode": "0x60806040523480156200001157600080fd5b50336040518060400160405280600f81526020017f4d7943727970746f4b69747469657300000000000000000000000000000000008152506040518060400160405280600381526020017f4d4b4300000000000000000000000000000000000000000000000000000000008152508160009081620000909190620006d0565b508060019081620000a29190620006d0565b505050600073ffffffffffffffffffffffffffffffffffffffff168173ffffffffffffffffffffffffffffffffffffffff16036200011a5760006040517f1e4fbdf7000000000000000000000000000000000000000000000000000000008152600401620001119190620007fc565b60405180910390fd5b6200012b81620001a960201b60201c565b50620001486794cc63582ecdda6760c01b6200026f60201b60201c565b6200016467c6d1c3fac70d730060c01b6200026f60201b60201c565b62000180679ff244ebd374f24c60c01b6200026f60201b60201c565b620001a3620001946200027260201b60201c565b6127106200029c60201b60201c565b620008a8565b6000600860009054906101000a900473ffffffffffffffffffffffffffffffffffffffff16905081600860006101000a81548173ffffffffffffffffffffffffffffffffffffffff021916908373ffffffffffffffffffffffffffffffffffffffff1602179055508173ffffffffffffffffffffffffffffffffffffffff168173ffffffffffffffffffffffffffffffffffffffff167f8be0079c531659141344cd1fd0a4f28419497f9722a3daafe3b4186f6b6457e060405160405180910390a35050565b50565b6000600860009054906101000a900473ffffffffffffffffffffffffffffffffffffffff16905090565b6000620002ae6200044c60201b60201c565b6bffffffffffffffffffffffff16905080826bffffffffffffffffffffffff161115620003165781816040517f6f483d090000000000000000000000000000000000000000000000000000000081526004016200030d9291906200087b565b60405180910390fd5b600073ffffffffffffffffffffffffffffffffffffffff168373ffffffffffffffffffffffffffffffffffffffff16036200038b5760006040517fb6d9900a000000000000000000000000000000000000000000000000000000008152600401620003829190620007fc565b60405180910390fd5b60405180604001604052808473ffffffffffffffffffffffffffffffffffffffff168152602001836bffffffffffffffffffffffff16815250600660008201518160000160006101000a81548173ffffffffffffffffffffffffffffffffffffffff021916908373ffffffffffffffffffffffffffffffffffffffff16021790555060208201518160000160146101000a8154816bffffffffffffffffffffffff02191690836bffffffffffffffffffffffff160217905550905050505050565b6000612710905090565b600081519050919050565b7f4e487b7100000000000000000000000000000000000000000000000000000000600052604160045260246000fd5b7f4e487b7100000000000000000000000000000000000000000000000000000000600052602260045260246000fd5b60006002820490506001821680620004d857607f821691505b602082108103620004ee57620004ed62000490565b5b50919050565b60008190508160005260206000209050919050565b60006020601f8301049050919050565b600082821b905092915050565b600060088302620005587fffffffffffffffffffffffffffffffffffffffffffffffffffffffffffffffff8262000519565b62000564868362000519565b95508019841693508086168417925050509392505050565b6000819050919050565b6000819050919050565b6000620005b1620005ab620005a5846200057c565b62000586565b6200057c565b9050919050565b6000819050919050565b620005cd8362000590565b620005e5620005dc82620005b8565b84845462000526565b825550505050565b600090565b620005fc620005ed565b62000609818484620005c2565b505050565b5b81811015620006315762000625600082620005f2565b6001810190506200060f565b5050565b601f82111562000680576200064a81620004f4565b620006558462000509565b8101602085101562000665578190505b6200067d620006748562000509565b8301826200060e565b50505b505050565b600082821c905092915050565b6000620006a56000198460080262000685565b1980831691505092915050565b6000620006c0838362000692565b9150826002028217905092915050565b620006db8262000456565b67ffffffffffffffff811115620006f757620006f662000461565b5b620007038254620004bf565b6200071082828562000635565b600060209050601f83116001811462000748576000841562000733578287015190505b6200073f8582620006b2565b865550620007af565b601f1984166200075886620004f4565b60005b8281101562000782578489015182556001820191506020850194506020810190506200075b565b86831015620007a257848901516200079e601f89168262000692565b8355505b6001600288020188555050505b505050505050565b600073ffffffffffffffffffffffffffffffffffffffff82169050919050565b6000620007e482620007b7565b9050919050565b620007f681620007d7565b82525050565b6000602082019050620008136000830184620007eb565b92915050565b60006bffffffffffffffffffffffff82169050919050565b6000620008526200084c620008468462000819565b62000586565b6200057c565b9050919050565b620008648162000831565b82525050565b62000875816200057c565b82525050565b600060408201905062000892600083018562000859565b620008a160208301846200086a565b9392505050565b6122df80620008b86000396000f3fe608060405234801561001057600080fd5b506004361061010b5760003560e01c806370a08231116100a2578063a22cb46511610071578063a22cb465146102b9578063b88d4fde146102d5578063c87b56dd146102f1578063e985e9c514610321578063f2fde38b146103515761010b565b806370a0823114610243578063715018a6146102735780638da5cb5b1461027d57806395d89b411461029b5761010b565b806323b872dd116100de57806323b872dd146101aa5780632a55205a146101c657806342842e0e146101f75780636352211e146102135761010b565b806301ffc9a71461011057806306fdde0314610140578063081812fc1461015e578063095ea7b31461018e575b600080fd5b61012a60048036038101906101259190611a47565b61036d565b6040516101379190611a8f565b60405180910390f35b6101486103bb565b6040516101559190611b3a565b60405180910390f35b61017860048036038101906101739190611b92565b61044d565b6040516101859190611c00565b60405180910390f35b6101a860048036038101906101a39190611c47565b610469565b005b6101c460048036038101906101bf9190611c87565b61047f565b005b6101e060048036038101906101db9190611cda565b610581565b6040516101ee929190611d29565b60405180910390f35b610211600480360381019061020c9190611c87565b61076b565b005b61022d60048036038101906102289190611b92565b61078b565b60405161023a9190611c00565b60405180910390f35b61025d60048036038101906102589190611d52565b61079d565b60405161026a9190611d7f565b60405180910390f35b61027b610857565b005b61028561086b565b6040516102929190611c00565b60405180910390f35b6102a3610895565b6040516102b09190611b3a565b60405180910390f35b6102d360048036038101906102ce9190611dc6565b610927565b005b6102ef60048036038101906102ea9190611f3b565b61093d565b005b61030b60048036038101906103069190611b92565b61095a565b6040516103189190611b3a565b60405180910390f35b61033b60048036038101906103369190611fbe565b6109c3565b6040516103489190611a8f565b60405180910390f35b61036b60048036038101906103669190611d52565b610a57565b005b60006103836780538521cc16f54f60c01b610add565b61039767328492bd1a047b4d60c01b610add565b6103ab6795f8206cf2ba89f260c01b610add565b6103b482610ae0565b9050919050565b6060600080546103ca9061202d565b80601f01602080910402602001604051908101604052809291908181526020018280546103f69061202d565b80156104435780601f1061041857610100808354040283529160200191610443565b820191906000526020600020905b81548152906001019060200180831161042657829003601f168201915b5050505050905090565b600061045882610b5a565b5061046282610be2565b9050919050565b61047b8282610476610c1f565b610c27565b5050565b600073ffffffffffffffffffffffffffffffffffffffff168273ffffffffffffffffffffffffffffffffffffffff16036104f15760006040517f64a0ae920000000000000000000000000000000000000000000000000000000081526004016104e89190611c00565b60405180910390fd5b60006105058383610500610c1f565b610c39565b90508373ffffffffffffffffffffffffffffffffffffffff168173ffffffffffffffffffffffffffffffffffffffff161461057b578382826040517f64283d7b0000000000000000000000000000000000000000000000000000000081526004016105729392919061205e565b60405180910390fd5b50505050565b6000806000600760008681526020019081526020016000206040518060400160405290816000820160009054906101000a900473ffffffffffffffffffffffffffffffffffffffff1673ffffffffffffffffffffffffffffffffffffffff1673ffffffffffffffffffffffffffffffffffffffff1681526020016000820160149054906101000a90046bffffffffffffffffffffffff166bffffffffffffffffffffffff166bffffffffffffffffffffffff16815250509050600073ffffffffffffffffffffffffffffffffffffffff16816000015173ffffffffffffffffffffffffffffffffffffffff16036107165760066040518060400160405290816000820160009054906101000a900473ffffffffffffffffffffffffffffffffffffffff1673ffffffffffffffffffffffffffffffffffffffff1673ffffffffffffffffffffffffffffffffffffffff1681526020016000820160149054906101000a90046bffffffffffffffffffffffff166bffffffffffffffffffffffff166bffffffffffffffffffffffff168152505090505b6000610720610e53565b6bffffffffffffffffffffffff1682602001516bffffffffffffffffffffffff168661074c91906120c4565b6107569190612135565b90508160000151819350935050509250929050565b6107868383836040518060200160405280600081525061093d565b505050565b600061079682610b5a565b9050919050565b60008073ffffffffffffffffffffffffffffffffffffffff168273ffffffffffffffffffffffffffffffffffffffff16036108105760006040517f89c62b640000000000000000000000000000000000000000000000000000000081526004016108079190611c00565b60405180910390fd5b600360008373ffffffffffffffffffffffffffffffffffffffff1673ffffffffffffffffffffffffffffffffffffffff168152602001908152602001600020549050919050565b61085f610e5d565b6108696000610ee4565b565b6000600860009054906101000a900473ffffffffffffffffffffffffffffffffffffffff16905090565b6060600180546108a49061202d565b80601f01602080910402602001604051908101604052809291908181526020018280546108d09061202d565b801561091d5780601f106108f25761010080835404028352916020019161091d565b820191906000526020600020905b81548152906001019060200180831161090057829003601f168201915b5050505050905090565b610939610932610c1f565b8383610faa565b5050565b61094884848461047f565b61095484848484611119565b50505050565b606061096582610b5a565b5060006109706112d0565b9050600081511161099057604051806020016040528060008152506109bb565b8061099a846112e7565b6040516020016109ab9291906121a2565b6040516020818303038152906040525b915050919050565b6000600560008473ffffffffffffffffffffffffffffffffffffffff1673ffffffffffffffffffffffffffffffffffffffff16815260200190815260200160002060008373ffffffffffffffffffffffffffffffffffffffff1673ffffffffffffffffffffffffffffffffffffffff16815260200190815260200160002060009054906101000a900460ff16905092915050565b610a5f610e5d565b600073ffffffffffffffffffffffffffffffffffffffff168173ffffffffffffffffffffffffffffffffffffffff1603610ad15760006040517f1e4fbdf7000000000000000000000000000000000000000000000000000000008152600401610ac89190611c00565b60405180910390fd5b610ada81610ee4565b50565b50565b60007f2a55205a000000000000000000000000000000000000000000000000000000007bffffffffffffffffffffffffffffffffffffffffffffffffffffffff1916827bffffffffffffffffffffffffffffffffffffffffffffffffffffffff19161480610b535750610b52826113b5565b5b9050919050565b600080610b6683611497565b9050600073ffffffffffffffffffffffffffffffffffffffff168173ffffffffffffffffffffffffffffffffffffffff1603610bd957826040517f7e273289000000000000000000000000000000000000000000000000000000008152600401610bd09190611d7f565b60405180910390fd5b80915050919050565b60006004600083815260200190815260200160002060009054906101000a900473ffffffffffffffffffffffffffffffffffffffff169050919050565b600033905090565b610c3483838360016114d4565b505050565b600080610c4584611497565b9050600073ffffffffffffffffffffffffffffffffffffffff168373ffffffffffffffffffffffffffffffffffffffff1614610c8757610c86818486611699565b5b600073ffffffffffffffffffffffffffffffffffffffff168173ffffffffffffffffffffffffffffffffffffffff1614610d1857610cc96000856000806114d4565b6001600360008373ffffffffffffffffffffffffffffffffffffffff1673ffffffffffffffffffffffffffffffffffffffff168152602001908152602001600020600082825403925050819055505b600073ffffffffffffffffffffffffffffffffffffffff168573ffffffffffffffffffffffffffffffffffffffff1614610d9b576001600360008773ffffffffffffffffffffffffffffffffffffffff1673ffffffffffffffffffffffffffffffffffffffff168152602001908152602001600020600082825401925050819055505b846002600086815260200190815260200160002060006101000a81548173ffffffffffffffffffffffffffffffffffffffff021916908373ffffffffffffffffffffffffffffffffffffffff160217905550838573ffffffffffffffffffffffffffffffffffffffff168273ffffffffffffffffffffffffffffffffffffffff167fddf252ad1be2c89b69c2b068fc378daa952ba7f163c4a11628f55a4df523b3ef60405160405180910390a4809150509392505050565b6000612710905090565b610e65610c1f565b73ffffffffffffffffffffffffffffffffffffffff16610e8361086b565b73ffffffffffffffffffffffffffffffffffffffff1614610ee257610ea6610c1f565b6040517f118cdaa7000000000000000000000000000000000000000000000000000000008152600401610ed99190611c00565b60405180910390fd5b565b6000600860009054906101000a900473ffffffffffffffffffffffffffffffffffffffff16905081600860006101000a81548173ffffffffffffffffffffffffffffffffffffffff021916908373ffffffffffffffffffffffffffffffffffffffff1602179055508173ffffffffffffffffffffffffffffffffffffffff168173ffffffffffffffffffffffffffffffffffffffff167f8be0079c531659141344cd1fd0a4f28419497f9722a3daafe3b4186f6b6457e060405160405180910390a35050565b600073ffffffffffffffffffffffffffffffffffffffff168273ffffffffffffffffffffffffffffffffffffffff160361101b57816040517f5b08ba180000000000000000000000000000000000000000000000000000000081526004016110129190611c00565b60405180910390fd5b80600560008573ffffffffffffffffffffffffffffffffffffffff1673ffffffffffffffffffffffffffffffffffffffff16815260200190815260200160002060008473ffffffffffffffffffffffffffffffffffffffff1673ffffffffffffffffffffffffffffffffffffffff16815260200190815260200160002060006101000a81548160ff0219169083151502179055508173ffffffffffffffffffffffffffffffffffffffff168373ffffffffffffffffffffffffffffffffffffffff167f17307eab39ab6107e8899845ad3d59bd9653f200f220920489ca2b5937696c318360405161110c9190611a8f565b60405180910390a3505050565b60008373ffffffffffffffffffffffffffffffffffffffff163b11156112ca578273ffffffffffffffffffffffffffffffffffffffff1663150b7a0261115d610c1f565b8685856040518563ffffffff1660e01b815260040161117f949392919061221b565b6020604051808303816000875af19250505080156111bb57506040513d601f19601f820116820180604052508101906111b8919061227c565b60015b61123f573d80600081146111eb576040519150601f19603f3d011682016040523d82523d6000602084013e6111f0565b606091505b50600081510361123757836040517f64a0ae9200000000000000000000000000000000000000000000000000000000815260040161122e9190611c00565b60405180910390fd5b805181602001fd5b63150b7a0260e01b7bffffffffffffffffffffffffffffffffffffffffffffffffffffffff1916817bffffffffffffffffffffffffffffffffffffffffffffffffffffffff1916146112c857836040517f64a0ae920000000000000000000000000000000000000000000000000000000081526004016112bf9190611c00565b60405180910390fd5b505b50505050565b606060405180602001604052806000815250905090565b6060600060016112f68461175d565b01905060008167ffffffffffffffff81111561131557611314611e10565b5b6040519080825280601f01601f1916602001820160405280156113475781602001600182028036833780820191505090505b509050600082602001820190505b6001156113aa578080600190039150507f3031323334353637383961626364656600000000000000000000000000000000600a86061a8153600a858161139e5761139d612106565b5b04945060008503611355575b819350505050919050565b60007f80ac58cd000000000000000000000000000000000000000000000000000000007bffffffffffffffffffffffffffffffffffffffffffffffffffffffff1916827bffffffffffffffffffffffffffffffffffffffffffffffffffffffff1916148061148057507f5b5e139f000000000000000000000000000000000000000000000000000000007bffffffffffffffffffffffffffffffffffffffffffffffffffffffff1916827bffffffffffffffffffffffffffffffffffffffffffffffffffffffff1916145b80611490575061148f826118b0565b5b9050919050565b60006002600083815260200190815260200160002060009054906101000a900473ffffffffffffffffffffffffffffffffffffffff169050919050565b808061150d5750600073ffffffffffffffffffffffffffffffffffffffff168273ffffffffffffffffffffffffffffffffffffffff1614155b1561164157600061151d84610b5a565b9050600073ffffffffffffffffffffffffffffffffffffffff168373ffffffffffffffffffffffffffffffffffffffff161415801561158857508273ffffffffffffffffffffffffffffffffffffffff168173ffffffffffffffffffffffffffffffffffffffff1614155b801561159b575061159981846109c3565b155b156115dd57826040517fa9fbf51f0000000000000000000000000000000000000000000000000000000081526004016115d49190611c00565b60405180910390fd5b811561163f57838573ffffffffffffffffffffffffffffffffffffffff168273ffffffffffffffffffffffffffffffffffffffff167f8c5be1e5ebec7d5bd14f71427d1e84f3dd0314c0f7b2291e5b200ac8c7c3b92560405160405180910390a45b505b836004600085815260200190815260200160002060006101000a81548173ffffffffffffffffffffffffffffffffffffffff021916908373ffffffffffffffffffffffffffffffffffffffff16021790555050505050565b6116a483838361191a565b61175857600073ffffffffffffffffffffffffffffffffffffffff168373ffffffffffffffffffffffffffffffffffffffff160361171957806040517f7e2732890000000000000000000000000000000000000000000000000000000081526004016117109190611d7f565b60405180910390fd5b81816040517f177e802f00000000000000000000000000000000000000000000000000000000815260040161174f929190611d29565b60405180910390fd5b505050565b600080600090507a184f03e93ff9f4daa797ed6e38ed64bf6a1f01000000000000000083106117bb577a184f03e93ff9f4daa797ed6e38ed64bf6a1f01000000000000000083816117b1576117b0612106565b5b0492506040810190505b6d04ee2d6d415b85acef810000000083106117f8576d04ee2d6d415b85acef810000000083816117ee576117ed612106565b5b0492506020810190505b662386f26fc10000831061182757662386f26fc10000838161181d5761181c612106565b5b0492506010810190505b6305f5e1008310611850576305f5e100838161184657611845612106565b5b0492506008810190505b612710831061187557612710838161186b5761186a612106565b5b0492506004810190505b60648310611898576064838161188e5761188d612106565b5b0492506002810190505b600a83106118a7576001810190505b80915050919050565b60007f01ffc9a7000000000000000000000000000000000000000000000000000000007bffffffffffffffffffffffffffffffffffffffffffffffffffffffff1916827bffffffffffffffffffffffffffffffffffffffffffffffffffffffff1916149050919050565b60008073ffffffffffffffffffffffffffffffffffffffff168373ffffffffffffffffffffffffffffffffffffffff16141580156119d257508273ffffffffffffffffffffffffffffffffffffffff168473ffffffffffffffffffffffffffffffffffffffff161480611993575061199284846109c3565b5b806119d157508273ffffffffffffffffffffffffffffffffffffffff166119b983610be2565b73ffffffffffffffffffffffffffffffffffffffff16145b5b90509392505050565b6000604051905090565b600080fd5b600080fd5b60007fffffffff0000000000000000000000000000000000000000000000000000000082169050919050565b611a24816119ef565b8114611a2f57600080fd5b50565b600081359050611a4181611a1b565b92915050565b600060208284031215611a5d57611a5c6119e5565b5b6000611a6b84828501611a32565b91505092915050565b60008115159050919050565b611a8981611a74565b82525050565b6000602082019050611aa46000830184611a80565b92915050565b600081519050919050565b600082825260208201905092915050565b60005b83811015611ae4578082015181840152602081019050611ac9565b60008484015250505050565b6000601f19601f8301169050919050565b6000611b0c82611aaa565b611b168185611ab5565b9350611b26818560208601611ac6565b611b2f81611af0565b840191505092915050565b60006020820190508181036000830152611b548184611b01565b905092915050565b6000819050919050565b611b6f81611b5c565b8114611b7a57600080fd5b50565b600081359050611b8c81611b66565b92915050565b600060208284031215611ba857611ba76119e5565b5b6000611bb684828501611b7d565b91505092915050565b600073ffffffffffffffffffffffffffffffffffffffff82169050919050565b6000611bea82611bbf565b9050919050565b611bfa81611bdf565b82525050565b6000602082019050611c156000830184611bf1565b92915050565b611c2481611bdf565b8114611c2f57600080fd5b50565b600081359050611c4181611c1b565b92915050565b60008060408385031215611c5e57611c5d6119e5565b5b6000611c6c85828601611c32565b9250506020611c7d85828601611b7d565b9150509250929050565b600080600060608486031215611ca057611c9f6119e5565b5b6000611cae86828701611c32565b9350506020611cbf86828701611c32565b9250506040611cd086828701611b7d565b9150509250925092565b60008060408385031215611cf157611cf06119e5565b5b6000611cff85828601611b7d565b9250506020611d1085828601611b7d565b9150509250929050565b611d2381611b5c565b82525050565b6000604082019050611d3e6000830185611bf1565b611d4b6020830184611d1a565b9392505050565b600060208284031215611d6857611d676119e5565b5b6000611d7684828501611c32565b91505092915050565b6000602082019050611d946000830184611d1a565b92915050565b611da381611a74565b8114611dae57600080fd5b50565b600081359050611dc081611d9a565b92915050565b60008060408385031215611ddd57611ddc6119e5565b5b6000611deb85828601611c32565b9250506020611dfc85828601611db1565b9150509250929050565b600080fd5b600080fd5b7f4e487b7100000000000000000000000000000000000000000000000000000000600052604160045260246000fd5b611e4882611af0565b810181811067ffffffffffffffff82111715611e6757611e66611e10565b5b80604052505050565b6000611e7a6119db565b9050611e868282611e3f565b919050565b600067ffffffffffffffff821115611ea657611ea5611e10565b5b611eaf82611af0565b9050602081019050919050565b82818337600083830152505050565b6000611ede611ed984611e8b565b611e70565b905082815260208101848484011115611efa57611ef9611e0b565b5b611f05848285611ebc565b509392505050565b600082601f830112611f2257611f21611e06565b5b8135611f32848260208601611ecb565b91505092915050565b60008060008060808587031215611f5557611f546119e5565b5b6000611f6387828801611c32565b9450506020611f7487828801611c32565b9350506040611f8587828801611b7d565b925050606085013567ffffffffffffffff811115611fa657611fa56119ea565b5b611fb287828801611f0d565b91505092959194509250565b60008060408385031215611fd557611fd46119e5565b5b6000611fe385828601611c32565b9250506020611ff485828601611c32565b9150509250929050565b7f4e487b7100000000000000000000000000000000000000000000000000000000600052602260045260246000fd5b6000600282049050600182168061204557607f821691505b60208210810361205857612057611ffe565b5b50919050565b60006060820190506120736000830186611bf1565b6120806020830185611d1a565b61208d6040830184611bf1565b949350505050565b7f4e487b7100000000000000000000000000000000000000000000000000000000600052601160045260246000fd5b60006120cf82611b5c565b91506120da83611b5c565b92508282026120e881611b5c565b915082820484148315176120ff576120fe612095565b5b5092915050565b7f4e487b7100000000000000000000000000000000000000000000000000000000600052601260045260246000fd5b600061214082611b5c565b915061214b83611b5c565b92508261215b5761215a612106565b5b828204905092915050565b600081905092915050565b600061217c82611aaa565b6121868185612166565b9350612196818560208601611ac6565b80840191505092915050565b60006121ae8285612171565b91506121ba8284612171565b91508190509392505050565b600081519050919050565b600082825260208201905092915050565b60006121ed826121c6565b6121f781856121d1565b9350612207818560208601611ac6565b61221081611af0565b840191505092915050565b60006080820190506122306000830187611bf1565b61223d6020830186611bf1565b61224a6040830185611d1a565b818103606083015261225c81846121e2565b905095945050505050565b60008151905061227681611a1b565b92915050565b600060208284031215612292576122916119e5565b5b60006122a084828501612267565b9150509291505056fea2646970667358221220913bb7b6cf52ddfa0604cb699e16bc5394d54113b12152938fed3a54e374f68a64736f6c63430008140033",
  "linkReferences": {},
  "deployedLinkReferences": {}
}